{
	"data": {
		"bytecode": {
			"linkReferences": {},
			"object": "608060405234801561000f575f80fd5b506103b88061001d5f395ff3fe608060405234801561000f575f80fd5b5060043610610029575f3560e01c8063266001d31461002d575b5f80fd5b610047600480360381019061004291906101d6565b61005d565b60405161005491906102c6565b60405180910390f35b60608282604051602001610072929190610350565b604051602081830303815290604052905092915050565b5f604051905090565b5f80fd5b5f80fd5b5f80fd5b5f80fd5b5f601f19601f8301169050919050565b7f4e487b71000000000000000000000000000000000000000000000000000000005f52604160045260245ffd5b6100e8826100a2565b810181811067ffffffffffffffff82111715610107576101066100b2565b5b80604052505050565b5f610119610089565b905061012582826100df565b919050565b5f67ffffffffffffffff821115610144576101436100b2565b5b61014d826100a2565b9050602081019050919050565b828183375f83830152505050565b5f61017a6101758461012a565b610110565b9050828152602081018484840111156101965761019561009e565b5b6101a184828561015a565b509392505050565b5f82601f8301126101bd576101bc61009a565b5b81356101cd848260208601610168565b91505092915050565b5f80604083850312156101ec576101eb610092565b5b5f83013567ffffffffffffffff81111561020957610208610096565b5b610215858286016101a9565b925050602083013567ffffffffffffffff81111561023657610235610096565b5b610242858286016101a9565b9150509250929050565b5f81519050919050565b5f82825260208201905092915050565b5f5b83811015610283578082015181840152602081019050610268565b5f8484015250505050565b5f6102988261024c565b6102a28185610256565b93506102b2818560208601610266565b6102bb816100a2565b840191505092915050565b5f6020820190508181035f8301526102de818461028e565b905092915050565b5f81519050919050565b5f81905092915050565b5f610304826102e6565b61030e81856102f0565b935061031e818560208601610266565b80840191505092915050565b7f2000000000000000000000000000000000000000000000000000000000000000815250565b5f61035b82856102fa565b91506103668261032a565b60018201915061037682846102fa565b9150819050939250505056fea2646970667358221220583621d911707bdd0d2381bcca830319d0b3df2b3f67e4d49f5952dcf7391cb764736f6c63430008140033",
			"opcodes": "PUSH1 0x80 PUSH1 0x40 MSTORE CALLVALUE DUP1 ISZERO PUSH2 0xF JUMPI PUSH0 DUP1 REVERT JUMPDEST POP PUSH2 0x3B8 DUP1 PUSH2 0x1D PUSH0 CODECOPY PUSH0 RETURN INVALID PUSH1 0x80 PUSH1 0x40 MSTORE CALLVALUE DUP1 ISZERO PUSH2 0xF JUMPI PUSH0 DUP1 REVERT JUMPDEST POP PUSH1 0x4 CALLDATASIZE LT PUSH2 0x29 JUMPI PUSH0 CALLDATALOAD PUSH1 0xE0 SHR DUP1 PUSH4 0x266001D3 EQ PUSH2 0x2D JUMPI JUMPDEST PUSH0 DUP1 REVERT JUMPDEST PUSH2 0x47 PUSH1 0x4 DUP1 CALLDATASIZE SUB DUP2 ADD SWAP1 PUSH2 0x42 SWAP2 SWAP1 PUSH2 0x1D6 JUMP JUMPDEST PUSH2 0x5D JUMP JUMPDEST PUSH1 0x40 MLOAD PUSH2 0x54 SWAP2 SWAP1 PUSH2 0x2C6 JUMP JUMPDEST PUSH1 0x40 MLOAD DUP1 SWAP2 SUB SWAP1 RETURN JUMPDEST PUSH1 0x60 DUP3 DUP3 PUSH1 0x40 MLOAD PUSH1 0x20 ADD PUSH2 0x72 SWAP3 SWAP2 SWAP1 PUSH2 0x350 JUMP JUMPDEST PUSH1 0x40 MLOAD PUSH1 0x20 DUP2 DUP4 SUB SUB DUP2 MSTORE SWAP1 PUSH1 0x40 MSTORE SWAP1 POP SWAP3 SWAP2 POP POP JUMP JUMPDEST PUSH0 PUSH1 0x40 MLOAD SWAP1 POP SWAP1 JUMP JUMPDEST PUSH0 DUP1 REVERT JUMPDEST PUSH0 DUP1 REVERT JUMPDEST PUSH0 DUP1 REVERT JUMPDEST PUSH0 DUP1 REVERT JUMPDEST PUSH0 PUSH1 0x1F NOT PUSH1 0x1F DUP4 ADD AND SWAP1 POP SWAP2 SWAP1 POP JUMP JUMPDEST PUSH32 0x4E487B7100000000000000000000000000000000000000000000000000000000 PUSH0 MSTORE PUSH1 0x41 PUSH1 0x4 MSTORE PUSH1 0x24 PUSH0 REVERT JUMPDEST PUSH2 0xE8 DUP3 PUSH2 0xA2 JUMP JUMPDEST DUP2 ADD DUP2 DUP2 LT PUSH8 0xFFFFFFFFFFFFFFFF DUP3 GT OR ISZERO PUSH2 0x107 JUMPI PUSH2 0x106 PUSH2 0xB2 JUMP JUMPDEST JUMPDEST DUP1 PUSH1 0x40 MSTORE POP POP POP JUMP JUMPDEST PUSH0 PUSH2 0x119 PUSH2 0x89 JUMP JUMPDEST SWAP1 POP PUSH2 0x125 DUP3 DUP3 PUSH2 0xDF JUMP JUMPDEST SWAP2 SWAP1 POP JUMP JUMPDEST PUSH0 PUSH8 0xFFFFFFFFFFFFFFFF DUP3 GT ISZERO PUSH2 0x144 JUMPI PUSH2 0x143 PUSH2 0xB2 JUMP JUMPDEST JUMPDEST PUSH2 0x14D DUP3 PUSH2 0xA2 JUMP JUMPDEST SWAP1 POP PUSH1 0x20 DUP2 ADD SWAP1 POP SWAP2 SWAP1 POP JUMP JUMPDEST DUP3 DUP2 DUP4 CALLDATACOPY PUSH0 DUP4 DUP4 ADD MSTORE POP POP POP JUMP JUMPDEST PUSH0 PUSH2 0x17A PUSH2 0x175 DUP5 PUSH2 0x12A JUMP JUMPDEST PUSH2 0x110 JUMP JUMPDEST SWAP1 POP DUP3 DUP2 MSTORE PUSH1 0x20 DUP2 ADD DUP5 DUP5 DUP5 ADD GT ISZERO PUSH2 0x196 JUMPI PUSH2 0x195 PUSH2 0x9E JUMP JUMPDEST JUMPDEST PUSH2 0x1A1 DUP5 DUP3 DUP6 PUSH2 0x15A JUMP JUMPDEST POP SWAP4 SWAP3 POP POP POP JUMP JUMPDEST PUSH0 DUP3 PUSH1 0x1F DUP4 ADD SLT PUSH2 0x1BD JUMPI PUSH2 0x1BC PUSH2 0x9A JUMP JUMPDEST JUMPDEST DUP2 CALLDATALOAD PUSH2 0x1CD DUP5 DUP3 PUSH1 0x20 DUP7 ADD PUSH2 0x168 JUMP JUMPDEST SWAP2 POP POP SWAP3 SWAP2 POP POP JUMP JUMPDEST PUSH0 DUP1 PUSH1 0x40 DUP4 DUP6 SUB SLT ISZERO PUSH2 0x1EC JUMPI PUSH2 0x1EB PUSH2 0x92 JUMP JUMPDEST JUMPDEST PUSH0 DUP4 ADD CALLDATALOAD PUSH8 0xFFFFFFFFFFFFFFFF DUP2 GT ISZERO PUSH2 0x209 JUMPI PUSH2 0x208 PUSH2 0x96 JUMP JUMPDEST JUMPDEST PUSH2 0x215 DUP6 DUP3 DUP7 ADD PUSH2 0x1A9 JUMP JUMPDEST SWAP3 POP POP PUSH1 0x20 DUP4 ADD CALLDATALOAD PUSH8 0xFFFFFFFFFFFFFFFF DUP2 GT ISZERO PUSH2 0x236 JUMPI PUSH2 0x235 PUSH2 0x96 JUMP JUMPDEST JUMPDEST PUSH2 0x242 DUP6 DUP3 DUP7 ADD PUSH2 0x1A9 JUMP JUMPDEST SWAP2 POP POP SWAP3 POP SWAP3 SWAP1 POP JUMP JUMPDEST PUSH0 DUP2 MLOAD SWAP1 POP SWAP2 SWAP1 POP JUMP JUMPDEST PUSH0 DUP3 DUP3 MSTORE PUSH1 0x20 DUP3 ADD SWAP1 POP SWAP3 SWAP2 POP POP JUMP JUMPDEST PUSH0 JUMPDEST DUP4 DUP2 LT ISZERO PUSH2 0x283 JUMPI DUP1 DUP3 ADD MLOAD DUP2 DUP5 ADD MSTORE PUSH1 0x20 DUP2 ADD SWAP1 POP PUSH2 0x268 JUMP JUMPDEST PUSH0 DUP5 DUP5 ADD MSTORE POP POP POP POP JUMP JUMPDEST PUSH0 PUSH2 0x298 DUP3 PUSH2 0x24C JUMP JUMPDEST PUSH2 0x2A2 DUP2 DUP6 PUSH2 0x256 JUMP JUMPDEST SWAP4 POP PUSH2 0x2B2 DUP2 DUP6 PUSH1 0x20 DUP7 ADD PUSH2 0x266 JUMP JUMPDEST PUSH2 0x2BB DUP2 PUSH2 0xA2 JUMP JUMPDEST DUP5 ADD SWAP2 POP POP SWAP3 SWAP2 POP POP JUMP JUMPDEST PUSH0 PUSH1 0x20 DUP3 ADD SWAP1 POP DUP2 DUP2 SUB PUSH0 DUP4 ADD MSTORE PUSH2 0x2DE DUP2 DUP5 PUSH2 0x28E JUMP JUMPDEST SWAP1 POP SWAP3 SWAP2 POP POP JUMP JUMPDEST PUSH0 DUP2 MLOAD SWAP1 POP SWAP2 SWAP1 POP JUMP JUMPDEST PUSH0 DUP2 SWAP1 POP SWAP3 SWAP2 POP POP JUMP JUMPDEST PUSH0 PUSH2 0x304 DUP3 PUSH2 0x2E6 JUMP JUMPDEST PUSH2 0x30E DUP2 DUP6 PUSH2 0x2F0 JUMP JUMPDEST SWAP4 POP PUSH2 0x31E DUP2 DUP6 PUSH1 0x20 DUP7 ADD PUSH2 0x266 JUMP JUMPDEST DUP1 DUP5 ADD SWAP2 POP POP SWAP3 SWAP2 POP POP JUMP JUMPDEST PUSH32 0x2000000000000000000000000000000000000000000000000000000000000000 DUP2 MSTORE POP JUMP JUMPDEST PUSH0 PUSH2 0x35B DUP3 DUP6 PUSH2 0x2FA JUMP JUMPDEST SWAP2 POP PUSH2 0x366 DUP3 PUSH2 0x32A JUMP JUMPDEST PUSH1 0x1 DUP3 ADD SWAP2 POP PUSH2 0x376 DUP3 DUP5 PUSH2 0x2FA JUMP JUMPDEST SWAP2 POP DUP2 SWAP1 POP SWAP4 SWAP3 POP POP POP JUMP INVALID LOG2 PUSH5 0x6970667358 0x22 SLT KECCAK256 PC CALLDATASIZE 0x21 0xD9 GT PUSH17 0x7BDD0D2381BCCA830319D0B3DF2B3F67E4 0xD4 SWAP16 MSIZE MSTORE 0xDC 0xF7 CODECOPY SHR 0xB7 PUSH5 0x736F6C6343 STOP ADDMOD EQ STOP CALLER "
		},
		"gasEstimates": {
			"creation": {
				"codeDepositCost": "190400",
				"executionCost": "230",
				"totalCost": "190630"
			},
			"external": {
				"concatenate(string,string)": "infinite"
			}
		},
		"methodIdentifiers": {
			"concatenate(string,string)": "266001d3"
		}
	},
	"abi": [
		{
			"inputs": [
				{
					"internalType": "string",
					"name": "a",
					"type": "string"
				},
				{
					"internalType": "string",
					"name": "b",
					"type": "string"
				}
			],
			"name": "concatenate",
			"outputs": [
				{
					"internalType": "string",
					"name": "",
					"type": "string"
				}
			],
			"stateMutability": "pure",
			"type": "function"
		}
	]
}