{
	"contracts/3_Ballot.sol": {
		"vendingMachine": {
			"abi": [
				{
					"inputs": [],
					"stateMutability": "nonpayable",
					"type": "constructor"
				},
				{
					"inputs": [
						{
							"internalType": "address",
							"name": "",
							"type": "address"
						}
					],
					"name": "donutBalences",
					"outputs": [
						{
							"internalType": "uint256",
							"name": "",
							"type": "uint256"
						}
					],
					"stateMutability": "view",
					"type": "function"
				},
				{
					"inputs": [],
					"name": "getVendingMachineBalence",
					"outputs": [
						{
							"internalType": "uint256",
							"name": "",
							"type": "uint256"
						}
					],
					"stateMutability": "view",
					"type": "function"
				},
				{
					"inputs": [],
					"name": "owner",
					"outputs": [
						{
							"internalType": "address",
							"name": "",
							"type": "address"
						}
					],
					"stateMutability": "view",
					"type": "function"
				},
				{
					"inputs": [
						{
							"internalType": "uint256",
							"name": "amount",
							"type": "uint256"
						}
					],
					"name": "purchase",
					"outputs": [],
					"stateMutability": "payable",
					"type": "function"
				},
				{
					"inputs": [
						{
							"internalType": "uint256",
							"name": "amount",
							"type": "uint256"
						}
					],
					"name": "restock",
					"outputs": [],
					"stateMutability": "nonpayable",
					"type": "function"
				}
			],
			"devdoc": {
				"kind": "dev",
				"methods": {},
				"version": 1
			},
			"evm": {
				"assembly": "    /* \"contracts/3_Ballot.sol\":58:814  contract vendingMachine{... */\n  mstore(0x40, 0x80)\n    /* \"contracts/3_Ballot.sol\":165:257  constructor(){... */\n  callvalue\n  dup1\n  iszero\n  tag_1\n  jumpi\n  0x00\n  dup1\n  revert\ntag_1:\n  pop\n    /* \"contracts/3_Ballot.sol\":196:206  msg.sender */\n  caller\n    /* \"contracts/3_Ballot.sol\":188:193  owner */\n  0x00\n  dup1\n    /* \"contracts/3_Ballot.sol\":188:206  owner = msg.sender */\n  0x0100\n  exp\n  dup2\n  sload\n  dup2\n  0xffffffffffffffffffffffffffffffffffffffff\n  mul\n  not\n  and\n  swap1\n  dup4\n  0xffffffffffffffffffffffffffffffffffffffff\n  and\n  mul\n  or\n  swap1\n  sstore\n  pop\n    /* \"contracts/3_Ballot.sol\":247:250  100 */\n  0x64\n    /* \"contracts/3_Ballot.sol\":216:229  donutBalences */\n  0x01\n    /* \"contracts/3_Ballot.sol\":216:244  donutBalences[address(this)] */\n  0x00\n    /* \"contracts/3_Ballot.sol\":238:242  this */\n  address\n    /* \"contracts/3_Ballot.sol\":216:244  donutBalences[address(this)] */\n  0xffffffffffffffffffffffffffffffffffffffff\n  and\n  0xffffffffffffffffffffffffffffffffffffffff\n  and\n  dup2\n  mstore\n  0x20\n  add\n  swap1\n  dup2\n  mstore\n  0x20\n  add\n  0x00\n  keccak256\n    /* \"contracts/3_Ballot.sol\":216:250  donutBalences[address(this)] = 100 */\n  dup2\n  swap1\n  sstore\n  pop\n    /* \"contracts/3_Ballot.sol\":58:814  contract vendingMachine{... */\n  dataSize(sub_0)\n  dup1\n  dataOffset(sub_0)\n  0x00\n  codecopy\n  0x00\n  return\nstop\n\nsub_0: assembly {\n        /* \"contracts/3_Ballot.sol\":58:814  contract vendingMachine{... */\n      mstore(0x40, 0x80)\n      jumpi(tag_1, lt(calldatasize, 0x04))\n      shr(0xe0, calldataload(0x00))\n      dup1\n      0x36117d31\n      eq\n      tag_2\n      jumpi\n      dup1\n      0x8da5cb5b\n      eq\n      tag_3\n      jumpi\n      dup1\n      0xc21a702a\n      eq\n      tag_4\n      jumpi\n      dup1\n      0xe2014eac\n      eq\n      tag_5\n      jumpi\n      dup1\n      0xefef39a1\n      eq\n      tag_6\n      jumpi\n    tag_1:\n      0x00\n      dup1\n      revert\n        /* \"contracts/3_Ballot.sol\":113:158  mapping (address => uint)public donutBalences */\n    tag_2:\n      callvalue\n      dup1\n      iszero\n      tag_7\n      jumpi\n      0x00\n      dup1\n      revert\n    tag_7:\n      pop\n      tag_8\n      0x04\n      dup1\n      calldatasize\n      sub\n      dup2\n      add\n      swap1\n      tag_9\n      swap2\n      swap1\n      tag_10\n      jump\t// in\n    tag_9:\n      tag_11\n      jump\t// in\n    tag_8:\n      mload(0x40)\n      tag_12\n      swap2\n      swap1\n      tag_13\n      jump\t// in\n    tag_12:\n      mload(0x40)\n      dup1\n      swap2\n      sub\n      swap1\n      return\n        /* \"contracts/3_Ballot.sol\":87:107  address public owner */\n    tag_3:\n      callvalue\n      dup1\n      iszero\n      tag_14\n      jumpi\n      0x00\n      dup1\n      revert\n    tag_14:\n      pop\n      tag_15\n      tag_16\n      jump\t// in\n    tag_15:\n      mload(0x40)\n      tag_17\n      swap2\n      swap1\n      tag_18\n      jump\t// in\n    tag_17:\n      mload(0x40)\n      dup1\n      swap2\n      sub\n      swap1\n      return\n        /* \"contracts/3_Ballot.sol\":386:527  function restock(uint amount)public {... */\n    tag_4:\n      callvalue\n      dup1\n      iszero\n      tag_19\n      jumpi\n      0x00\n      dup1\n      revert\n    tag_19:\n      pop\n      tag_20\n      0x04\n      dup1\n      calldatasize\n      sub\n      dup2\n      add\n      swap1\n      tag_21\n      swap2\n      swap1\n      tag_22\n      jump\t// in\n    tag_21:\n      tag_23\n      jump\t// in\n    tag_20:\n      stop\n        /* \"contracts/3_Ballot.sol\":267:380  function getVendingMachineBalence()public view returns (uint){... */\n    tag_5:\n      callvalue\n      dup1\n      iszero\n      tag_24\n      jumpi\n      0x00\n      dup1\n      revert\n    tag_24:\n      pop\n      tag_25\n      tag_26\n      jump\t// in\n    tag_25:\n      mload(0x40)\n      tag_27\n      swap2\n      swap1\n      tag_13\n      jump\t// in\n    tag_27:\n      mload(0x40)\n      dup1\n      swap2\n      sub\n      swap1\n      return\n        /* \"contracts/3_Ballot.sol\":533:812  function purchase (uint amount)public payable {... */\n    tag_6:\n      tag_28\n      0x04\n      dup1\n      calldatasize\n      sub\n      dup2\n      add\n      swap1\n      tag_29\n      swap2\n      swap1\n      tag_22\n      jump\t// in\n    tag_29:\n      tag_30\n      jump\t// in\n    tag_28:\n      stop\n        /* \"contracts/3_Ballot.sol\":113:158  mapping (address => uint)public donutBalences */\n    tag_11:\n      mstore(0x20, 0x01)\n      dup1\n      0x00\n      mstore\n      keccak256(0x00, 0x40)\n      0x00\n      swap2\n      pop\n      swap1\n      pop\n      sload\n      dup2\n      jump\t// out\n        /* \"contracts/3_Ballot.sol\":87:107  address public owner */\n    tag_16:\n      0x00\n      dup1\n      sload\n      swap1\n      0x0100\n      exp\n      swap1\n      div\n      0xffffffffffffffffffffffffffffffffffffffff\n      and\n      dup2\n      jump\t// out\n        /* \"contracts/3_Ballot.sol\":386:527  function restock(uint amount)public {... */\n    tag_23:\n        /* \"contracts/3_Ballot.sol\":454:459  owner */\n      0x00\n      dup1\n      sload\n      swap1\n      0x0100\n      exp\n      swap1\n      div\n      0xffffffffffffffffffffffffffffffffffffffff\n      and\n        /* \"contracts/3_Ballot.sol\":440:459  msg.sender == owner */\n      0xffffffffffffffffffffffffffffffffffffffff\n      and\n        /* \"contracts/3_Ballot.sol\":440:450  msg.sender */\n      caller\n        /* \"contracts/3_Ballot.sol\":440:459  msg.sender == owner */\n      0xffffffffffffffffffffffffffffffffffffffff\n      and\n      eq\n        /* \"contracts/3_Ballot.sol\":432:474  require(msg.sender == owner, \"only owner\") */\n      tag_32\n      jumpi\n      mload(0x40)\n      0x08c379a000000000000000000000000000000000000000000000000000000000\n      dup2\n      mstore\n      0x04\n      add\n      tag_33\n      swap1\n      tag_34\n      jump\t// in\n    tag_33:\n      mload(0x40)\n      dup1\n      swap2\n      sub\n      swap1\n      revert\n    tag_32:\n        /* \"contracts/3_Ballot.sol\":514:520  amount */\n      dup1\n        /* \"contracts/3_Ballot.sol\":484:497  donutBalences */\n      0x01\n        /* \"contracts/3_Ballot.sol\":484:512  donutBalences[address(this)] */\n      0x00\n        /* \"contracts/3_Ballot.sol\":506:510  this */\n      address\n        /* \"contracts/3_Ballot.sol\":484:512  donutBalences[address(this)] */\n      0xffffffffffffffffffffffffffffffffffffffff\n      and\n      0xffffffffffffffffffffffffffffffffffffffff\n      and\n      dup2\n      mstore\n      0x20\n      add\n      swap1\n      dup2\n      mstore\n      0x20\n      add\n      0x00\n      keccak256\n      0x00\n        /* \"contracts/3_Ballot.sol\":484:520  donutBalences[address(this)]+=amount */\n      dup3\n      dup3\n      sload\n      tag_35\n      swap2\n      swap1\n      tag_36\n      jump\t// in\n    tag_35:\n      swap3\n      pop\n      pop\n      dup2\n      swap1\n      sstore\n      pop\n        /* \"contracts/3_Ballot.sol\":386:527  function restock(uint amount)public {... */\n      pop\n      jump\t// out\n        /* \"contracts/3_Ballot.sol\":267:380  function getVendingMachineBalence()public view returns (uint){... */\n    tag_26:\n        /* \"contracts/3_Ballot.sol\":323:327  uint */\n      0x00\n        /* \"contracts/3_Ballot.sol\":345:358  donutBalences */\n      0x01\n        /* \"contracts/3_Ballot.sol\":345:373  donutBalences[address(this)] */\n      0x00\n        /* \"contracts/3_Ballot.sol\":367:371  this */\n      address\n        /* \"contracts/3_Ballot.sol\":345:373  donutBalences[address(this)] */\n      0xffffffffffffffffffffffffffffffffffffffff\n      and\n      0xffffffffffffffffffffffffffffffffffffffff\n      and\n      dup2\n      mstore\n      0x20\n      add\n      swap1\n      dup2\n      mstore\n      0x20\n      add\n      0x00\n      keccak256\n      sload\n        /* \"contracts/3_Ballot.sol\":338:373  return donutBalences[address(this)] */\n      swap1\n      pop\n        /* \"contracts/3_Ballot.sol\":267:380  function getVendingMachineBalence()public view returns (uint){... */\n      swap1\n      jump\t// out\n        /* \"contracts/3_Ballot.sol\":533:812  function purchase (uint amount)public payable {... */\n    tag_30:\n        /* \"contracts/3_Ballot.sol\":616:623  1 ether */\n      0x0de0b6b3a7640000\n        /* \"contracts/3_Ballot.sol\":609:615  amount */\n      dup2\n        /* \"contracts/3_Ballot.sol\":609:623  amount*1 ether */\n      tag_39\n      swap2\n      swap1\n      tag_40\n      jump\t// in\n    tag_39:\n        /* \"contracts/3_Ballot.sol\":597:606  msg.value */\n      callvalue\n        /* \"contracts/3_Ballot.sol\":597:623  msg.value>= amount*1 ether */\n      lt\n      iszero\n        /* \"contracts/3_Ballot.sol\":589:657  require(msg.value>= amount*1 ether,\"not having sufficient balence \") */\n      tag_41\n      jumpi\n      mload(0x40)\n      0x08c379a000000000000000000000000000000000000000000000000000000000\n      dup2\n      mstore\n      0x04\n      add\n      tag_42\n      swap1\n      tag_43\n      jump\t// in\n    tag_42:\n      mload(0x40)\n      dup1\n      swap2\n      sub\n      swap1\n      revert\n    tag_41:\n        /* \"contracts/3_Ballot.sol\":706:712  amount */\n      dup1\n        /* \"contracts/3_Ballot.sol\":675:688  donutBalences */\n      0x01\n        /* \"contracts/3_Ballot.sol\":675:704  donutBalences[address (this)] */\n      0x00\n        /* \"contracts/3_Ballot.sol\":698:702  this */\n      address\n        /* \"contracts/3_Ballot.sol\":675:704  donutBalences[address (this)] */\n      0xffffffffffffffffffffffffffffffffffffffff\n      and\n      0xffffffffffffffffffffffffffffffffffffffff\n      and\n      dup2\n      mstore\n      0x20\n      add\n      swap1\n      dup2\n      mstore\n      0x20\n      add\n      0x00\n      keccak256\n      sload\n        /* \"contracts/3_Ballot.sol\":675:712  donutBalences[address (this)]>=amount */\n      lt\n      iszero\n        /* \"contracts/3_Ballot.sol\":667:713  require(donutBalences[address (this)]>=amount) */\n      tag_44\n      jumpi\n      0x00\n      dup1\n      revert\n    tag_44:\n        /* \"contracts/3_Ballot.sol\":755:761  amount */\n      dup1\n        /* \"contracts/3_Ballot.sol\":723:736  donutBalences */\n      0x01\n        /* \"contracts/3_Ballot.sol\":723:751  donutBalences[address(this)] */\n      0x00\n        /* \"contracts/3_Ballot.sol\":745:749  this */\n      address\n        /* \"contracts/3_Ballot.sol\":723:751  donutBalences[address(this)] */\n      0xffffffffffffffffffffffffffffffffffffffff\n      and\n      0xffffffffffffffffffffffffffffffffffffffff\n      and\n      dup2\n      mstore\n      0x20\n      add\n      swap1\n      dup2\n      mstore\n      0x20\n      add\n      0x00\n      keccak256\n      0x00\n        /* \"contracts/3_Ballot.sol\":723:761  donutBalences[address(this)] -= amount */\n      dup3\n      dup3\n      sload\n      tag_45\n      swap2\n      swap1\n      tag_46\n      jump\t// in\n    tag_45:\n      swap3\n      pop\n      pop\n      dup2\n      swap1\n      sstore\n      pop\n        /* \"contracts/3_Ballot.sol\":799:805  amount */\n      dup1\n        /* \"contracts/3_Ballot.sol\":771:784  donutBalences */\n      0x01\n        /* \"contracts/3_Ballot.sol\":771:796  donutBalences[msg.sender] */\n      0x00\n        /* \"contracts/3_Ballot.sol\":785:795  msg.sender */\n      caller\n        /* \"contracts/3_Ballot.sol\":771:796  donutBalences[msg.sender] */\n      0xffffffffffffffffffffffffffffffffffffffff\n      and\n      0xffffffffffffffffffffffffffffffffffffffff\n      and\n      dup2\n      mstore\n      0x20\n      add\n      swap1\n      dup2\n      mstore\n      0x20\n      add\n      0x00\n      keccak256\n      0x00\n        /* \"contracts/3_Ballot.sol\":771:805  donutBalences[msg.sender]+= amount */\n      dup3\n      dup3\n      sload\n      tag_47\n      swap2\n      swap1\n      tag_36\n      jump\t// in\n    tag_47:\n      swap3\n      pop\n      pop\n      dup2\n      swap1\n      sstore\n      pop\n        /* \"contracts/3_Ballot.sol\":533:812  function purchase (uint amount)public payable {... */\n      pop\n      jump\t// out\n        /* \"#utility.yul\":88:205   */\n    tag_49:\n        /* \"#utility.yul\":197:198   */\n      0x00\n        /* \"#utility.yul\":194:195   */\n      dup1\n        /* \"#utility.yul\":187:199   */\n      revert\n        /* \"#utility.yul\":334:460   */\n    tag_51:\n        /* \"#utility.yul\":371:378   */\n      0x00\n        /* \"#utility.yul\":411:453   */\n      0xffffffffffffffffffffffffffffffffffffffff\n        /* \"#utility.yul\":404:409   */\n      dup3\n        /* \"#utility.yul\":400:454   */\n      and\n        /* \"#utility.yul\":389:454   */\n      swap1\n      pop\n        /* \"#utility.yul\":334:460   */\n      swap2\n      swap1\n      pop\n      jump\t// out\n        /* \"#utility.yul\":466:562   */\n    tag_52:\n        /* \"#utility.yul\":503:510   */\n      0x00\n        /* \"#utility.yul\":532:556   */\n      tag_72\n        /* \"#utility.yul\":550:555   */\n      dup3\n        /* \"#utility.yul\":532:556   */\n      tag_51\n      jump\t// in\n    tag_72:\n        /* \"#utility.yul\":521:556   */\n      swap1\n      pop\n        /* \"#utility.yul\":466:562   */\n      swap2\n      swap1\n      pop\n      jump\t// out\n        /* \"#utility.yul\":568:690   */\n    tag_53:\n        /* \"#utility.yul\":641:665   */\n      tag_74\n        /* \"#utility.yul\":659:664   */\n      dup2\n        /* \"#utility.yul\":641:665   */\n      tag_52\n      jump\t// in\n    tag_74:\n        /* \"#utility.yul\":634:639   */\n      dup2\n        /* \"#utility.yul\":631:666   */\n      eq\n        /* \"#utility.yul\":621:684   */\n      tag_75\n      jumpi\n        /* \"#utility.yul\":680:681   */\n      0x00\n        /* \"#utility.yul\":677:678   */\n      dup1\n        /* \"#utility.yul\":670:682   */\n      revert\n        /* \"#utility.yul\":621:684   */\n    tag_75:\n        /* \"#utility.yul\":568:690   */\n      pop\n      jump\t// out\n        /* \"#utility.yul\":696:835   */\n    tag_54:\n        /* \"#utility.yul\":742:747   */\n      0x00\n        /* \"#utility.yul\":780:786   */\n      dup2\n        /* \"#utility.yul\":767:787   */\n      calldataload\n        /* \"#utility.yul\":758:787   */\n      swap1\n      pop\n        /* \"#utility.yul\":796:829   */\n      tag_77\n        /* \"#utility.yul\":823:828   */\n      dup2\n        /* \"#utility.yul\":796:829   */\n      tag_53\n      jump\t// in\n    tag_77:\n        /* \"#utility.yul\":696:835   */\n      swap3\n      swap2\n      pop\n      pop\n      jump\t// out\n        /* \"#utility.yul\":841:1170   */\n    tag_10:\n        /* \"#utility.yul\":900:906   */\n      0x00\n        /* \"#utility.yul\":949:951   */\n      0x20\n        /* \"#utility.yul\":937:946   */\n      dup3\n        /* \"#utility.yul\":928:935   */\n      dup5\n        /* \"#utility.yul\":924:947   */\n      sub\n        /* \"#utility.yul\":920:952   */\n      slt\n        /* \"#utility.yul\":917:1036   */\n      iszero\n      tag_79\n      jumpi\n        /* \"#utility.yul\":955:1034   */\n      tag_80\n      tag_49\n      jump\t// in\n    tag_80:\n        /* \"#utility.yul\":917:1036   */\n    tag_79:\n        /* \"#utility.yul\":1075:1076   */\n      0x00\n        /* \"#utility.yul\":1100:1153   */\n      tag_81\n        /* \"#utility.yul\":1145:1152   */\n      dup5\n        /* \"#utility.yul\":1136:1142   */\n      dup3\n        /* \"#utility.yul\":1125:1134   */\n      dup6\n        /* \"#utility.yul\":1121:1143   */\n      add\n        /* \"#utility.yul\":1100:1153   */\n      tag_54\n      jump\t// in\n    tag_81:\n        /* \"#utility.yul\":1090:1153   */\n      swap2\n      pop\n        /* \"#utility.yul\":1046:1163   */\n      pop\n        /* \"#utility.yul\":841:1170   */\n      swap3\n      swap2\n      pop\n      pop\n      jump\t// out\n        /* \"#utility.yul\":1176:1253   */\n    tag_55:\n        /* \"#utility.yul\":1213:1220   */\n      0x00\n        /* \"#utility.yul\":1242:1247   */\n      dup2\n        /* \"#utility.yul\":1231:1247   */\n      swap1\n      pop\n        /* \"#utility.yul\":1176:1253   */\n      swap2\n      swap1\n      pop\n      jump\t// out\n        /* \"#utility.yul\":1259:1377   */\n    tag_56:\n        /* \"#utility.yul\":1346:1370   */\n      tag_84\n        /* \"#utility.yul\":1364:1369   */\n      dup2\n        /* \"#utility.yul\":1346:1370   */\n      tag_55\n      jump\t// in\n    tag_84:\n        /* \"#utility.yul\":1341:1344   */\n      dup3\n        /* \"#utility.yul\":1334:1371   */\n      mstore\n        /* \"#utility.yul\":1259:1377   */\n      pop\n      pop\n      jump\t// out\n        /* \"#utility.yul\":1383:1605   */\n    tag_13:\n        /* \"#utility.yul\":1476:1480   */\n      0x00\n        /* \"#utility.yul\":1514:1516   */\n      0x20\n        /* \"#utility.yul\":1503:1512   */\n      dup3\n        /* \"#utility.yul\":1499:1517   */\n      add\n        /* \"#utility.yul\":1491:1517   */\n      swap1\n      pop\n        /* \"#utility.yul\":1527:1598   */\n      tag_86\n        /* \"#utility.yul\":1595:1596   */\n      0x00\n        /* \"#utility.yul\":1584:1593   */\n      dup4\n        /* \"#utility.yul\":1580:1597   */\n      add\n        /* \"#utility.yul\":1571:1577   */\n      dup5\n        /* \"#utility.yul\":1527:1598   */\n      tag_56\n      jump\t// in\n    tag_86:\n        /* \"#utility.yul\":1383:1605   */\n      swap3\n      swap2\n      pop\n      pop\n      jump\t// out\n        /* \"#utility.yul\":1611:1729   */\n    tag_57:\n        /* \"#utility.yul\":1698:1722   */\n      tag_88\n        /* \"#utility.yul\":1716:1721   */\n      dup2\n        /* \"#utility.yul\":1698:1722   */\n      tag_52\n      jump\t// in\n    tag_88:\n        /* \"#utility.yul\":1693:1696   */\n      dup3\n        /* \"#utility.yul\":1686:1723   */\n      mstore\n        /* \"#utility.yul\":1611:1729   */\n      pop\n      pop\n      jump\t// out\n        /* \"#utility.yul\":1735:1957   */\n    tag_18:\n        /* \"#utility.yul\":1828:1832   */\n      0x00\n        /* \"#utility.yul\":1866:1868   */\n      0x20\n        /* \"#utility.yul\":1855:1864   */\n      dup3\n        /* \"#utility.yul\":1851:1869   */\n      add\n        /* \"#utility.yul\":1843:1869   */\n      swap1\n      pop\n        /* \"#utility.yul\":1879:1950   */\n      tag_90\n        /* \"#utility.yul\":1947:1948   */\n      0x00\n        /* \"#utility.yul\":1936:1945   */\n      dup4\n        /* \"#utility.yul\":1932:1949   */\n      add\n        /* \"#utility.yul\":1923:1929   */\n      dup5\n        /* \"#utility.yul\":1879:1950   */\n      tag_57\n      jump\t// in\n    tag_90:\n        /* \"#utility.yul\":1735:1957   */\n      swap3\n      swap2\n      pop\n      pop\n      jump\t// out\n        /* \"#utility.yul\":1963:2085   */\n    tag_58:\n        /* \"#utility.yul\":2036:2060   */\n      tag_92\n        /* \"#utility.yul\":2054:2059   */\n      dup2\n        /* \"#utility.yul\":2036:2060   */\n      tag_55\n      jump\t// in\n    tag_92:\n        /* \"#utility.yul\":2029:2034   */\n      dup2\n        /* \"#utility.yul\":2026:2061   */\n      eq\n        /* \"#utility.yul\":2016:2079   */\n      tag_93\n      jumpi\n        /* \"#utility.yul\":2075:2076   */\n      0x00\n        /* \"#utility.yul\":2072:2073   */\n      dup1\n        /* \"#utility.yul\":2065:2077   */\n      revert\n        /* \"#utility.yul\":2016:2079   */\n    tag_93:\n        /* \"#utility.yul\":1963:2085   */\n      pop\n      jump\t// out\n        /* \"#utility.yul\":2091:2230   */\n    tag_59:\n        /* \"#utility.yul\":2137:2142   */\n      0x00\n        /* \"#utility.yul\":2175:2181   */\n      dup2\n        /* \"#utility.yul\":2162:2182   */\n      calldataload\n        /* \"#utility.yul\":2153:2182   */\n      swap1\n      pop\n        /* \"#utility.yul\":2191:2224   */\n      tag_95\n        /* \"#utility.yul\":2218:2223   */\n      dup2\n        /* \"#utility.yul\":2191:2224   */\n      tag_58\n      jump\t// in\n    tag_95:\n        /* \"#utility.yul\":2091:2230   */\n      swap3\n      swap2\n      pop\n      pop\n      jump\t// out\n        /* \"#utility.yul\":2236:2565   */\n    tag_22:\n        /* \"#utility.yul\":2295:2301   */\n      0x00\n        /* \"#utility.yul\":2344:2346   */\n      0x20\n        /* \"#utility.yul\":2332:2341   */\n      dup3\n        /* \"#utility.yul\":2323:2330   */\n      dup5\n        /* \"#utility.yul\":2319:2342   */\n      sub\n        /* \"#utility.yul\":2315:2347   */\n      slt\n        /* \"#utility.yul\":2312:2431   */\n      iszero\n      tag_97\n      jumpi\n        /* \"#utility.yul\":2350:2429   */\n      tag_98\n      tag_49\n      jump\t// in\n    tag_98:\n        /* \"#utility.yul\":2312:2431   */\n    tag_97:\n        /* \"#utility.yul\":2470:2471   */\n      0x00\n        /* \"#utility.yul\":2495:2548   */\n      tag_99\n        /* \"#utility.yul\":2540:2547   */\n      dup5\n        /* \"#utility.yul\":2531:2537   */\n      dup3\n        /* \"#utility.yul\":2520:2529   */\n      dup6\n        /* \"#utility.yul\":2516:2538   */\n      add\n        /* \"#utility.yul\":2495:2548   */\n      tag_59\n      jump\t// in\n    tag_99:\n        /* \"#utility.yul\":2485:2548   */\n      swap2\n      pop\n        /* \"#utility.yul\":2441:2558   */\n      pop\n        /* \"#utility.yul\":2236:2565   */\n      swap3\n      swap2\n      pop\n      pop\n      jump\t// out\n        /* \"#utility.yul\":2571:2740   */\n    tag_60:\n        /* \"#utility.yul\":2655:2666   */\n      0x00\n        /* \"#utility.yul\":2689:2695   */\n      dup3\n        /* \"#utility.yul\":2684:2687   */\n      dup3\n        /* \"#utility.yul\":2677:2696   */\n      mstore\n        /* \"#utility.yul\":2729:2733   */\n      0x20\n        /* \"#utility.yul\":2724:2727   */\n      dup3\n        /* \"#utility.yul\":2720:2734   */\n      add\n        /* \"#utility.yul\":2705:2734   */\n      swap1\n      pop\n        /* \"#utility.yul\":2571:2740   */\n      swap3\n      swap2\n      pop\n      pop\n      jump\t// out\n        /* \"#utility.yul\":2746:2906   */\n    tag_61:\n        /* \"#utility.yul\":2886:2898   */\n      0x6f6e6c79206f776e657200000000000000000000000000000000000000000000\n        /* \"#utility.yul\":2882:2883   */\n      0x00\n        /* \"#utility.yul\":2874:2880   */\n      dup3\n        /* \"#utility.yul\":2870:2884   */\n      add\n        /* \"#utility.yul\":2863:2899   */\n      mstore\n        /* \"#utility.yul\":2746:2906   */\n      pop\n      jump\t// out\n        /* \"#utility.yul\":2912:3278   */\n    tag_62:\n        /* \"#utility.yul\":3054:3057   */\n      0x00\n        /* \"#utility.yul\":3075:3142   */\n      tag_103\n        /* \"#utility.yul\":3139:3141   */\n      0x0a\n        /* \"#utility.yul\":3134:3137   */\n      dup4\n        /* \"#utility.yul\":3075:3142   */\n      tag_60\n      jump\t// in\n    tag_103:\n        /* \"#utility.yul\":3068:3142   */\n      swap2\n      pop\n        /* \"#utility.yul\":3151:3244   */\n      tag_104\n        /* \"#utility.yul\":3240:3243   */\n      dup3\n        /* \"#utility.yul\":3151:3244   */\n      tag_61\n      jump\t// in\n    tag_104:\n        /* \"#utility.yul\":3269:3271   */\n      0x20\n        /* \"#utility.yul\":3264:3267   */\n      dup3\n        /* \"#utility.yul\":3260:3272   */\n      add\n        /* \"#utility.yul\":3253:3272   */\n      swap1\n      pop\n        /* \"#utility.yul\":2912:3278   */\n      swap2\n      swap1\n      pop\n      jump\t// out\n        /* \"#utility.yul\":3284:3703   */\n    tag_34:\n        /* \"#utility.yul\":3450:3454   */\n      0x00\n        /* \"#utility.yul\":3488:3490   */\n      0x20\n        /* \"#utility.yul\":3477:3486   */\n      dup3\n        /* \"#utility.yul\":3473:3491   */\n      add\n        /* \"#utility.yul\":3465:3491   */\n      swap1\n      pop\n        /* \"#utility.yul\":3537:3546   */\n      dup2\n        /* \"#utility.yul\":3531:3535   */\n      dup2\n        /* \"#utility.yul\":3527:3547   */\n      sub\n        /* \"#utility.yul\":3523:3524   */\n      0x00\n        /* \"#utility.yul\":3512:3521   */\n      dup4\n        /* \"#utility.yul\":3508:3525   */\n      add\n        /* \"#utility.yul\":3501:3548   */\n      mstore\n        /* \"#utility.yul\":3565:3696   */\n      tag_106\n        /* \"#utility.yul\":3691:3695   */\n      dup2\n        /* \"#utility.yul\":3565:3696   */\n      tag_62\n      jump\t// in\n    tag_106:\n        /* \"#utility.yul\":3557:3696   */\n      swap1\n      pop\n        /* \"#utility.yul\":3284:3703   */\n      swap2\n      swap1\n      pop\n      jump\t// out\n        /* \"#utility.yul\":3709:3889   */\n    tag_63:\n        /* \"#utility.yul\":3757:3834   */\n      0x4e487b7100000000000000000000000000000000000000000000000000000000\n        /* \"#utility.yul\":3754:3755   */\n      0x00\n        /* \"#utility.yul\":3747:3835   */\n      mstore\n        /* \"#utility.yul\":3854:3858   */\n      0x11\n        /* \"#utility.yul\":3851:3852   */\n      0x04\n        /* \"#utility.yul\":3844:3859   */\n      mstore\n        /* \"#utility.yul\":3878:3882   */\n      0x24\n        /* \"#utility.yul\":3875:3876   */\n      0x00\n        /* \"#utility.yul\":3868:3883   */\n      revert\n        /* \"#utility.yul\":3895:4086   */\n    tag_36:\n        /* \"#utility.yul\":3935:3938   */\n      0x00\n        /* \"#utility.yul\":3954:3974   */\n      tag_109\n        /* \"#utility.yul\":3972:3973   */\n      dup3\n        /* \"#utility.yul\":3954:3974   */\n      tag_55\n      jump\t// in\n    tag_109:\n        /* \"#utility.yul\":3949:3974   */\n      swap2\n      pop\n        /* \"#utility.yul\":3988:4008   */\n      tag_110\n        /* \"#utility.yul\":4006:4007   */\n      dup4\n        /* \"#utility.yul\":3988:4008   */\n      tag_55\n      jump\t// in\n    tag_110:\n        /* \"#utility.yul\":3983:4008   */\n      swap3\n      pop\n        /* \"#utility.yul\":4031:4032   */\n      dup3\n        /* \"#utility.yul\":4028:4029   */\n      dup3\n        /* \"#utility.yul\":4024:4033   */\n      add\n        /* \"#utility.yul\":4017:4033   */\n      swap1\n      pop\n        /* \"#utility.yul\":4052:4055   */\n      dup1\n        /* \"#utility.yul\":4049:4050   */\n      dup3\n        /* \"#utility.yul\":4046:4056   */\n      gt\n        /* \"#utility.yul\":4043:4079   */\n      iszero\n      tag_111\n      jumpi\n        /* \"#utility.yul\":4059:4077   */\n      tag_112\n      tag_63\n      jump\t// in\n    tag_112:\n        /* \"#utility.yul\":4043:4079   */\n    tag_111:\n        /* \"#utility.yul\":3895:4086   */\n      swap3\n      swap2\n      pop\n      pop\n      jump\t// out\n        /* \"#utility.yul\":4092:4502   */\n    tag_40:\n        /* \"#utility.yul\":4132:4139   */\n      0x00\n        /* \"#utility.yul\":4155:4175   */\n      tag_114\n        /* \"#utility.yul\":4173:4174   */\n      dup3\n        /* \"#utility.yul\":4155:4175   */\n      tag_55\n      jump\t// in\n    tag_114:\n        /* \"#utility.yul\":4150:4175   */\n      swap2\n      pop\n        /* \"#utility.yul\":4189:4209   */\n      tag_115\n        /* \"#utility.yul\":4207:4208   */\n      dup4\n        /* \"#utility.yul\":4189:4209   */\n      tag_55\n      jump\t// in\n    tag_115:\n        /* \"#utility.yul\":4184:4209   */\n      swap3\n      pop\n        /* \"#utility.yul\":4244:4245   */\n      dup3\n        /* \"#utility.yul\":4241:4242   */\n      dup3\n        /* \"#utility.yul\":4237:4246   */\n      mul\n        /* \"#utility.yul\":4266:4296   */\n      tag_116\n        /* \"#utility.yul\":4284:4295   */\n      dup2\n        /* \"#utility.yul\":4266:4296   */\n      tag_55\n      jump\t// in\n    tag_116:\n        /* \"#utility.yul\":4255:4296   */\n      swap2\n      pop\n        /* \"#utility.yul\":4445:4446   */\n      dup3\n        /* \"#utility.yul\":4436:4443   */\n      dup3\n        /* \"#utility.yul\":4432:4447   */\n      div\n        /* \"#utility.yul\":4429:4430   */\n      dup5\n        /* \"#utility.yul\":4426:4448   */\n      eq\n        /* \"#utility.yul\":4406:4407   */\n      dup4\n        /* \"#utility.yul\":4399:4408   */\n      iszero\n        /* \"#utility.yul\":4379:4462   */\n      or\n        /* \"#utility.yul\":4356:4495   */\n      tag_117\n      jumpi\n        /* \"#utility.yul\":4475:4493   */\n      tag_118\n      tag_63\n      jump\t// in\n    tag_118:\n        /* \"#utility.yul\":4356:4495   */\n    tag_117:\n        /* \"#utility.yul\":4140:4502   */\n      pop\n        /* \"#utility.yul\":4092:4502   */\n      swap3\n      swap2\n      pop\n      pop\n      jump\t// out\n        /* \"#utility.yul\":4508:4688   */\n    tag_64:\n        /* \"#utility.yul\":4648:4680   */\n      0x6e6f7420686176696e672073756666696369656e742062616c656e6365200000\n        /* \"#utility.yul\":4644:4645   */\n      0x00\n        /* \"#utility.yul\":4636:4642   */\n      dup3\n        /* \"#utility.yul\":4632:4646   */\n      add\n        /* \"#utility.yul\":4625:4681   */\n      mstore\n        /* \"#utility.yul\":4508:4688   */\n      pop\n      jump\t// out\n        /* \"#utility.yul\":4694:5060   */\n    tag_65:\n        /* \"#utility.yul\":4836:4839   */\n      0x00\n        /* \"#utility.yul\":4857:4924   */\n      tag_121\n        /* \"#utility.yul\":4921:4923   */\n      0x1e\n        /* \"#utility.yul\":4916:4919   */\n      dup4\n        /* \"#utility.yul\":4857:4924   */\n      tag_60\n      jump\t// in\n    tag_121:\n        /* \"#utility.yul\":4850:4924   */\n      swap2\n      pop\n        /* \"#utility.yul\":4933:5026   */\n      tag_122\n        /* \"#utility.yul\":5022:5025   */\n      dup3\n        /* \"#utility.yul\":4933:5026   */\n      tag_64\n      jump\t// in\n    tag_122:\n        /* \"#utility.yul\":5051:5053   */\n      0x20\n        /* \"#utility.yul\":5046:5049   */\n      dup3\n        /* \"#utility.yul\":5042:5054   */\n      add\n        /* \"#utility.yul\":5035:5054   */\n      swap1\n      pop\n        /* \"#utility.yul\":4694:5060   */\n      swap2\n      swap1\n      pop\n      jump\t// out\n        /* \"#utility.yul\":5066:5485   */\n    tag_43:\n        /* \"#utility.yul\":5232:5236   */\n      0x00\n        /* \"#utility.yul\":5270:5272   */\n      0x20\n        /* \"#utility.yul\":5259:5268   */\n      dup3\n        /* \"#utility.yul\":5255:5273   */\n      add\n        /* \"#utility.yul\":5247:5273   */\n      swap1\n      pop\n        /* \"#utility.yul\":5319:5328   */\n      dup2\n        /* \"#utility.yul\":5313:5317   */\n      dup2\n        /* \"#utility.yul\":5309:5329   */\n      sub\n        /* \"#utility.yul\":5305:5306   */\n      0x00\n        /* \"#utility.yul\":5294:5303   */\n      dup4\n        /* \"#utility.yul\":5290:5307   */\n      add\n        /* \"#utility.yul\":5283:5330   */\n      mstore\n        /* \"#utility.yul\":5347:5478   */\n      tag_124\n        /* \"#utility.yul\":5473:5477   */\n      dup2\n        /* \"#utility.yul\":5347:5478   */\n      tag_65\n      jump\t// in\n    tag_124:\n        /* \"#utility.yul\":5339:5478   */\n      swap1\n      pop\n        /* \"#utility.yul\":5066:5485   */\n      swap2\n      swap1\n      pop\n      jump\t// out\n        /* \"#utility.yul\":5491:5685   */\n    tag_46:\n        /* \"#utility.yul\":5531:5535   */\n      0x00\n        /* \"#utility.yul\":5551:5571   */\n      tag_126\n        /* \"#utility.yul\":5569:5570   */\n      dup3\n        /* \"#utility.yul\":5551:5571   */\n      tag_55\n      jump\t// in\n    tag_126:\n        /* \"#utility.yul\":5546:5571   */\n      swap2\n      pop\n        /* \"#utility.yul\":5585:5605   */\n      tag_127\n        /* \"#utility.yul\":5603:5604   */\n      dup4\n        /* \"#utility.yul\":5585:5605   */\n      tag_55\n      jump\t// in\n    tag_127:\n        /* \"#utility.yul\":5580:5605   */\n      swap3\n      pop\n        /* \"#utility.yul\":5629:5630   */\n      dup3\n        /* \"#utility.yul\":5626:5627   */\n      dup3\n        /* \"#utility.yul\":5622:5631   */\n      sub\n        /* \"#utility.yul\":5614:5631   */\n      swap1\n      pop\n        /* \"#utility.yul\":5653:5654   */\n      dup2\n        /* \"#utility.yul\":5647:5651   */\n      dup2\n        /* \"#utility.yul\":5644:5655   */\n      gt\n        /* \"#utility.yul\":5641:5678   */\n      iszero\n      tag_128\n      jumpi\n        /* \"#utility.yul\":5658:5676   */\n      tag_129\n      tag_63\n      jump\t// in\n    tag_129:\n        /* \"#utility.yul\":5641:5678   */\n    tag_128:\n        /* \"#utility.yul\":5491:5685   */\n      swap3\n      swap2\n      pop\n      pop\n      jump\t// out\n\n    auxdata: 0xa2646970667358221220b5c244fe82d87835d8eae5a9bc6bd9fdc7f8845fb69603dcb7c4a2539cc79c2b64736f6c63430008140033\n}\n",
				"bytecode": {
					"linkReferences": {},
					"object": "608060405234801561000f575f80fd5b50335f806101000a81548173ffffffffffffffffffffffffffffffffffffffff021916908373ffffffffffffffffffffffffffffffffffffffff160217905550606460015f3073ffffffffffffffffffffffffffffffffffffffff1673ffffffffffffffffffffffffffffffffffffffff1681526020019081526020015f20819055506106e98061009f5f395ff3fe608060405260043610610049575f3560e01c806336117d311461004d5780638da5cb5b14610089578063c21a702a146100b3578063e2014eac146100db578063efef39a114610105575b5f80fd5b348015610058575f80fd5b50610073600480360381019061006e9190610426565b610121565b6040516100809190610469565b60405180910390f35b348015610094575f80fd5b5061009d610136565b6040516100aa9190610491565b60405180910390f35b3480156100be575f80fd5b506100d960048036038101906100d491906104d4565b610159565b005b3480156100e6575f80fd5b506100ef61023c565b6040516100fc9190610469565b60405180910390f35b61011f600480360381019061011a91906104d4565b610280565b005b6001602052805f5260405f205f915090505481565b5f8054906101000a900473ffffffffffffffffffffffffffffffffffffffff1681565b5f8054906101000a900473ffffffffffffffffffffffffffffffffffffffff1673ffffffffffffffffffffffffffffffffffffffff163373ffffffffffffffffffffffffffffffffffffffff16146101e6576040517f08c379a00000000000000000000000000000000000000000000000000000000081526004016101dd90610559565b60405180910390fd5b8060015f3073ffffffffffffffffffffffffffffffffffffffff1673ffffffffffffffffffffffffffffffffffffffff1681526020019081526020015f205f82825461023291906105a4565b9250508190555050565b5f60015f3073ffffffffffffffffffffffffffffffffffffffff1673ffffffffffffffffffffffffffffffffffffffff1681526020019081526020015f2054905090565b670de0b6b3a76400008161029491906105d7565b3410156102d6576040517f08c379a00000000000000000000000000000000000000000000000000000000081526004016102cd90610662565b60405180910390fd5b8060015f3073ffffffffffffffffffffffffffffffffffffffff1673ffffffffffffffffffffffffffffffffffffffff1681526020019081526020015f2054101561031f575f80fd5b8060015f3073ffffffffffffffffffffffffffffffffffffffff1673ffffffffffffffffffffffffffffffffffffffff1681526020019081526020015f205f82825461036b9190610680565b925050819055508060015f3373ffffffffffffffffffffffffffffffffffffffff1673ffffffffffffffffffffffffffffffffffffffff1681526020019081526020015f205f8282546103be91906105a4565b9250508190555050565b5f80fd5b5f73ffffffffffffffffffffffffffffffffffffffff82169050919050565b5f6103f5826103cc565b9050919050565b610405816103eb565b811461040f575f80fd5b50565b5f81359050610420816103fc565b92915050565b5f6020828403121561043b5761043a6103c8565b5b5f61044884828501610412565b91505092915050565b5f819050919050565b61046381610451565b82525050565b5f60208201905061047c5f83018461045a565b92915050565b61048b816103eb565b82525050565b5f6020820190506104a45f830184610482565b92915050565b6104b381610451565b81146104bd575f80fd5b50565b5f813590506104ce816104aa565b92915050565b5f602082840312156104e9576104e86103c8565b5b5f6104f6848285016104c0565b91505092915050565b5f82825260208201905092915050565b7f6f6e6c79206f776e6572000000000000000000000000000000000000000000005f82015250565b5f610543600a836104ff565b915061054e8261050f565b602082019050919050565b5f6020820190508181035f83015261057081610537565b9050919050565b7f4e487b71000000000000000000000000000000000000000000000000000000005f52601160045260245ffd5b5f6105ae82610451565b91506105b983610451565b92508282019050808211156105d1576105d0610577565b5b92915050565b5f6105e182610451565b91506105ec83610451565b92508282026105fa81610451565b9150828204841483151761061157610610610577565b5b5092915050565b7f6e6f7420686176696e672073756666696369656e742062616c656e63652000005f82015250565b5f61064c601e836104ff565b915061065782610618565b602082019050919050565b5f6020820190508181035f83015261067981610640565b9050919050565b5f61068a82610451565b915061069583610451565b92508282039050818111156106ad576106ac610577565b5b9291505056fea2646970667358221220b5c244fe82d87835d8eae5a9bc6bd9fdc7f8845fb69603dcb7c4a2539cc79c2b64736f6c63430008140033",
					"opcodes": "PUSH1 0x80 PUSH1 0x40 MSTORE CALLVALUE DUP1 ISZERO PUSH2 0xF JUMPI PUSH0 DUP1 REVERT JUMPDEST POP CALLER PUSH0 DUP1 PUSH2 0x100 EXP DUP2 SLOAD DUP2 PUSH20 0xFFFFFFFFFFFFFFFFFFFFFFFFFFFFFFFFFFFFFFFF MUL NOT AND SWAP1 DUP4 PUSH20 0xFFFFFFFFFFFFFFFFFFFFFFFFFFFFFFFFFFFFFFFF AND MUL OR SWAP1 SSTORE POP PUSH1 0x64 PUSH1 0x1 PUSH0 ADDRESS PUSH20 0xFFFFFFFFFFFFFFFFFFFFFFFFFFFFFFFFFFFFFFFF AND PUSH20 0xFFFFFFFFFFFFFFFFFFFFFFFFFFFFFFFFFFFFFFFF AND DUP2 MSTORE PUSH1 0x20 ADD SWAP1 DUP2 MSTORE PUSH1 0x20 ADD PUSH0 KECCAK256 DUP2 SWAP1 SSTORE POP PUSH2 0x6E9 DUP1 PUSH2 0x9F PUSH0 CODECOPY PUSH0 RETURN INVALID PUSH1 0x80 PUSH1 0x40 MSTORE PUSH1 0x4 CALLDATASIZE LT PUSH2 0x49 JUMPI PUSH0 CALLDATALOAD PUSH1 0xE0 SHR DUP1 PUSH4 0x36117D31 EQ PUSH2 0x4D JUMPI DUP1 PUSH4 0x8DA5CB5B EQ PUSH2 0x89 JUMPI DUP1 PUSH4 0xC21A702A EQ PUSH2 0xB3 JUMPI DUP1 PUSH4 0xE2014EAC EQ PUSH2 0xDB JUMPI DUP1 PUSH4 0xEFEF39A1 EQ PUSH2 0x105 JUMPI JUMPDEST PUSH0 DUP1 REVERT JUMPDEST CALLVALUE DUP1 ISZERO PUSH2 0x58 JUMPI PUSH0 DUP1 REVERT JUMPDEST POP PUSH2 0x73 PUSH1 0x4 DUP1 CALLDATASIZE SUB DUP2 ADD SWAP1 PUSH2 0x6E SWAP2 SWAP1 PUSH2 0x426 JUMP JUMPDEST PUSH2 0x121 JUMP JUMPDEST PUSH1 0x40 MLOAD PUSH2 0x80 SWAP2 SWAP1 PUSH2 0x469 JUMP JUMPDEST PUSH1 0x40 MLOAD DUP1 SWAP2 SUB SWAP1 RETURN JUMPDEST CALLVALUE DUP1 ISZERO PUSH2 0x94 JUMPI PUSH0 DUP1 REVERT JUMPDEST POP PUSH2 0x9D PUSH2 0x136 JUMP JUMPDEST PUSH1 0x40 MLOAD PUSH2 0xAA SWAP2 SWAP1 PUSH2 0x491 JUMP JUMPDEST PUSH1 0x40 MLOAD DUP1 SWAP2 SUB SWAP1 RETURN JUMPDEST CALLVALUE DUP1 ISZERO PUSH2 0xBE JUMPI PUSH0 DUP1 REVERT JUMPDEST POP PUSH2 0xD9 PUSH1 0x4 DUP1 CALLDATASIZE SUB DUP2 ADD SWAP1 PUSH2 0xD4 SWAP2 SWAP1 PUSH2 0x4D4 JUMP JUMPDEST PUSH2 0x159 JUMP JUMPDEST STOP JUMPDEST CALLVALUE DUP1 ISZERO PUSH2 0xE6 JUMPI PUSH0 DUP1 REVERT JUMPDEST POP PUSH2 0xEF PUSH2 0x23C JUMP JUMPDEST PUSH1 0x40 MLOAD PUSH2 0xFC SWAP2 SWAP1 PUSH2 0x469 JUMP JUMPDEST PUSH1 0x40 MLOAD DUP1 SWAP2 SUB SWAP1 RETURN JUMPDEST PUSH2 0x11F PUSH1 0x4 DUP1 CALLDATASIZE SUB DUP2 ADD SWAP1 PUSH2 0x11A SWAP2 SWAP1 PUSH2 0x4D4 JUMP JUMPDEST PUSH2 0x280 JUMP JUMPDEST STOP JUMPDEST PUSH1 0x1 PUSH1 0x20 MSTORE DUP1 PUSH0 MSTORE PUSH1 0x40 PUSH0 KECCAK256 PUSH0 SWAP2 POP SWAP1 POP SLOAD DUP2 JUMP JUMPDEST PUSH0 DUP1 SLOAD SWAP1 PUSH2 0x100 EXP SWAP1 DIV PUSH20 0xFFFFFFFFFFFFFFFFFFFFFFFFFFFFFFFFFFFFFFFF AND DUP2 JUMP JUMPDEST PUSH0 DUP1 SLOAD SWAP1 PUSH2 0x100 EXP SWAP1 DIV PUSH20 0xFFFFFFFFFFFFFFFFFFFFFFFFFFFFFFFFFFFFFFFF AND PUSH20 0xFFFFFFFFFFFFFFFFFFFFFFFFFFFFFFFFFFFFFFFF AND CALLER PUSH20 0xFFFFFFFFFFFFFFFFFFFFFFFFFFFFFFFFFFFFFFFF AND EQ PUSH2 0x1E6 JUMPI PUSH1 0x40 MLOAD PUSH32 0x8C379A000000000000000000000000000000000000000000000000000000000 DUP2 MSTORE PUSH1 0x4 ADD PUSH2 0x1DD SWAP1 PUSH2 0x559 JUMP JUMPDEST PUSH1 0x40 MLOAD DUP1 SWAP2 SUB SWAP1 REVERT JUMPDEST DUP1 PUSH1 0x1 PUSH0 ADDRESS PUSH20 0xFFFFFFFFFFFFFFFFFFFFFFFFFFFFFFFFFFFFFFFF AND PUSH20 0xFFFFFFFFFFFFFFFFFFFFFFFFFFFFFFFFFFFFFFFF AND DUP2 MSTORE PUSH1 0x20 ADD SWAP1 DUP2 MSTORE PUSH1 0x20 ADD PUSH0 KECCAK256 PUSH0 DUP3 DUP3 SLOAD PUSH2 0x232 SWAP2 SWAP1 PUSH2 0x5A4 JUMP JUMPDEST SWAP3 POP POP DUP2 SWAP1 SSTORE POP POP JUMP JUMPDEST PUSH0 PUSH1 0x1 PUSH0 ADDRESS PUSH20 0xFFFFFFFFFFFFFFFFFFFFFFFFFFFFFFFFFFFFFFFF AND PUSH20 0xFFFFFFFFFFFFFFFFFFFFFFFFFFFFFFFFFFFFFFFF AND DUP2 MSTORE PUSH1 0x20 ADD SWAP1 DUP2 MSTORE PUSH1 0x20 ADD PUSH0 KECCAK256 SLOAD SWAP1 POP SWAP1 JUMP JUMPDEST PUSH8 0xDE0B6B3A7640000 DUP2 PUSH2 0x294 SWAP2 SWAP1 PUSH2 0x5D7 JUMP JUMPDEST CALLVALUE LT ISZERO PUSH2 0x2D6 JUMPI PUSH1 0x40 MLOAD PUSH32 0x8C379A000000000000000000000000000000000000000000000000000000000 DUP2 MSTORE PUSH1 0x4 ADD PUSH2 0x2CD SWAP1 PUSH2 0x662 JUMP JUMPDEST PUSH1 0x40 MLOAD DUP1 SWAP2 SUB SWAP1 REVERT JUMPDEST DUP1 PUSH1 0x1 PUSH0 ADDRESS PUSH20 0xFFFFFFFFFFFFFFFFFFFFFFFFFFFFFFFFFFFFFFFF AND PUSH20 0xFFFFFFFFFFFFFFFFFFFFFFFFFFFFFFFFFFFFFFFF AND DUP2 MSTORE PUSH1 0x20 ADD SWAP1 DUP2 MSTORE PUSH1 0x20 ADD PUSH0 KECCAK256 SLOAD LT ISZERO PUSH2 0x31F JUMPI PUSH0 DUP1 REVERT JUMPDEST DUP1 PUSH1 0x1 PUSH0 ADDRESS PUSH20 0xFFFFFFFFFFFFFFFFFFFFFFFFFFFFFFFFFFFFFFFF AND PUSH20 0xFFFFFFFFFFFFFFFFFFFFFFFFFFFFFFFFFFFFFFFF AND DUP2 MSTORE PUSH1 0x20 ADD SWAP1 DUP2 MSTORE PUSH1 0x20 ADD PUSH0 KECCAK256 PUSH0 DUP3 DUP3 SLOAD PUSH2 0x36B SWAP2 SWAP1 PUSH2 0x680 JUMP JUMPDEST SWAP3 POP POP DUP2 SWAP1 SSTORE POP DUP1 PUSH1 0x1 PUSH0 CALLER PUSH20 0xFFFFFFFFFFFFFFFFFFFFFFFFFFFFFFFFFFFFFFFF AND PUSH20 0xFFFFFFFFFFFFFFFFFFFFFFFFFFFFFFFFFFFFFFFF AND DUP2 MSTORE PUSH1 0x20 ADD SWAP1 DUP2 MSTORE PUSH1 0x20 ADD PUSH0 KECCAK256 PUSH0 DUP3 DUP3 SLOAD PUSH2 0x3BE SWAP2 SWAP1 PUSH2 0x5A4 JUMP JUMPDEST SWAP3 POP POP DUP2 SWAP1 SSTORE POP POP JUMP JUMPDEST PUSH0 DUP1 REVERT JUMPDEST PUSH0 PUSH20 0xFFFFFFFFFFFFFFFFFFFFFFFFFFFFFFFFFFFFFFFF DUP3 AND SWAP1 POP SWAP2 SWAP1 POP JUMP JUMPDEST PUSH0 PUSH2 0x3F5 DUP3 PUSH2 0x3CC JUMP JUMPDEST SWAP1 POP SWAP2 SWAP1 POP JUMP JUMPDEST PUSH2 0x405 DUP2 PUSH2 0x3EB JUMP JUMPDEST DUP2 EQ PUSH2 0x40F JUMPI PUSH0 DUP1 REVERT JUMPDEST POP JUMP JUMPDEST PUSH0 DUP2 CALLDATALOAD SWAP1 POP PUSH2 0x420 DUP2 PUSH2 0x3FC JUMP JUMPDEST SWAP3 SWAP2 POP POP JUMP JUMPDEST PUSH0 PUSH1 0x20 DUP3 DUP5 SUB SLT ISZERO PUSH2 0x43B JUMPI PUSH2 0x43A PUSH2 0x3C8 JUMP JUMPDEST JUMPDEST PUSH0 PUSH2 0x448 DUP5 DUP3 DUP6 ADD PUSH2 0x412 JUMP JUMPDEST SWAP2 POP POP SWAP3 SWAP2 POP POP JUMP JUMPDEST PUSH0 DUP2 SWAP1 POP SWAP2 SWAP1 POP JUMP JUMPDEST PUSH2 0x463 DUP2 PUSH2 0x451 JUMP JUMPDEST DUP3 MSTORE POP POP JUMP JUMPDEST PUSH0 PUSH1 0x20 DUP3 ADD SWAP1 POP PUSH2 0x47C PUSH0 DUP4 ADD DUP5 PUSH2 0x45A JUMP JUMPDEST SWAP3 SWAP2 POP POP JUMP JUMPDEST PUSH2 0x48B DUP2 PUSH2 0x3EB JUMP JUMPDEST DUP3 MSTORE POP POP JUMP JUMPDEST PUSH0 PUSH1 0x20 DUP3 ADD SWAP1 POP PUSH2 0x4A4 PUSH0 DUP4 ADD DUP5 PUSH2 0x482 JUMP JUMPDEST SWAP3 SWAP2 POP POP JUMP JUMPDEST PUSH2 0x4B3 DUP2 PUSH2 0x451 JUMP JUMPDEST DUP2 EQ PUSH2 0x4BD JUMPI PUSH0 DUP1 REVERT JUMPDEST POP JUMP JUMPDEST PUSH0 DUP2 CALLDATALOAD SWAP1 POP PUSH2 0x4CE DUP2 PUSH2 0x4AA JUMP JUMPDEST SWAP3 SWAP2 POP POP JUMP JUMPDEST PUSH0 PUSH1 0x20 DUP3 DUP5 SUB SLT ISZERO PUSH2 0x4E9 JUMPI PUSH2 0x4E8 PUSH2 0x3C8 JUMP JUMPDEST JUMPDEST PUSH0 PUSH2 0x4F6 DUP5 DUP3 DUP6 ADD PUSH2 0x4C0 JUMP JUMPDEST SWAP2 POP POP SWAP3 SWAP2 POP POP JUMP JUMPDEST PUSH0 DUP3 DUP3 MSTORE PUSH1 0x20 DUP3 ADD SWAP1 POP SWAP3 SWAP2 POP POP JUMP JUMPDEST PUSH32 0x6F6E6C79206F776E657200000000000000000000000000000000000000000000 PUSH0 DUP3 ADD MSTORE POP JUMP JUMPDEST PUSH0 PUSH2 0x543 PUSH1 0xA DUP4 PUSH2 0x4FF JUMP JUMPDEST SWAP2 POP PUSH2 0x54E DUP3 PUSH2 0x50F JUMP JUMPDEST PUSH1 0x20 DUP3 ADD SWAP1 POP SWAP2 SWAP1 POP JUMP JUMPDEST PUSH0 PUSH1 0x20 DUP3 ADD SWAP1 POP DUP2 DUP2 SUB PUSH0 DUP4 ADD MSTORE PUSH2 0x570 DUP2 PUSH2 0x537 JUMP JUMPDEST SWAP1 POP SWAP2 SWAP1 POP JUMP JUMPDEST PUSH32 0x4E487B7100000000000000000000000000000000000000000000000000000000 PUSH0 MSTORE PUSH1 0x11 PUSH1 0x4 MSTORE PUSH1 0x24 PUSH0 REVERT JUMPDEST PUSH0 PUSH2 0x5AE DUP3 PUSH2 0x451 JUMP JUMPDEST SWAP2 POP PUSH2 0x5B9 DUP4 PUSH2 0x451 JUMP JUMPDEST SWAP3 POP DUP3 DUP3 ADD SWAP1 POP DUP1 DUP3 GT ISZERO PUSH2 0x5D1 JUMPI PUSH2 0x5D0 PUSH2 0x577 JUMP JUMPDEST JUMPDEST SWAP3 SWAP2 POP POP JUMP JUMPDEST PUSH0 PUSH2 0x5E1 DUP3 PUSH2 0x451 JUMP JUMPDEST SWAP2 POP PUSH2 0x5EC DUP4 PUSH2 0x451 JUMP JUMPDEST SWAP3 POP DUP3 DUP3 MUL PUSH2 0x5FA DUP2 PUSH2 0x451 JUMP JUMPDEST SWAP2 POP DUP3 DUP3 DIV DUP5 EQ DUP4 ISZERO OR PUSH2 0x611 JUMPI PUSH2 0x610 PUSH2 0x577 JUMP JUMPDEST JUMPDEST POP SWAP3 SWAP2 POP POP JUMP JUMPDEST PUSH32 0x6E6F7420686176696E672073756666696369656E742062616C656E6365200000 PUSH0 DUP3 ADD MSTORE POP JUMP JUMPDEST PUSH0 PUSH2 0x64C PUSH1 0x1E DUP4 PUSH2 0x4FF JUMP JUMPDEST SWAP2 POP PUSH2 0x657 DUP3 PUSH2 0x618 JUMP JUMPDEST PUSH1 0x20 DUP3 ADD SWAP1 POP SWAP2 SWAP1 POP JUMP JUMPDEST PUSH0 PUSH1 0x20 DUP3 ADD SWAP1 POP DUP2 DUP2 SUB PUSH0 DUP4 ADD MSTORE PUSH2 0x679 DUP2 PUSH2 0x640 JUMP JUMPDEST SWAP1 POP SWAP2 SWAP1 POP JUMP JUMPDEST PUSH0 PUSH2 0x68A DUP3 PUSH2 0x451 JUMP JUMPDEST SWAP2 POP PUSH2 0x695 DUP4 PUSH2 0x451 JUMP JUMPDEST SWAP3 POP DUP3 DUP3 SUB SWAP1 POP DUP2 DUP2 GT ISZERO PUSH2 0x6AD JUMPI PUSH2 0x6AC PUSH2 0x577 JUMP JUMPDEST JUMPDEST SWAP3 SWAP2 POP POP JUMP INVALID LOG2 PUSH5 0x6970667358 0x22 SLT KECCAK256 0xB5 0xC2 PREVRANDAO INVALID DUP3 0xD8 PUSH25 0x35D8EAE5A9BC6BD9FDC7F8845FB69603DCB7C4A2539CC79C2B PUSH5 0x736F6C6343 STOP ADDMOD EQ STOP CALLER "
				},
				"gasEstimates": {
					"creation": {
						"codeDepositCost": "353800",
						"executionCost": "46857",
						"totalCost": "400657"
					},
					"external": {
						"donutBalences(address)": "2780",
						"getVendingMachineBalence()": "2563",
						"owner()": "2505",
						"purchase(uint256)": "infinite",
						"restock(uint256)": "infinite"
					}
				},
				"methodIdentifiers": {
					"donutBalences(address)": "36117d31",
					"getVendingMachineBalence()": "e2014eac",
					"owner()": "8da5cb5b",
					"purchase(uint256)": "efef39a1",
					"restock(uint256)": "c21a702a"
				}
			},
			"storageLayout": {
				"storage": [
					{
						"astId": 3,
						"contract": "contracts/3_Ballot.sol:vendingMachine",
						"label": "owner",
						"offset": 0,
						"slot": "0",
						"type": "t_address"
					},
					{
						"astId": 7,
						"contract": "contracts/3_Ballot.sol:vendingMachine",
						"label": "donutBalences",
						"offset": 0,
						"slot": "1",
						"type": "t_mapping(t_address,t_uint256)"
					}
				],
				"types": {
					"t_address": {
						"encoding": "inplace",
						"label": "address",
						"numberOfBytes": "20"
					},
					"t_mapping(t_address,t_uint256)": {
						"encoding": "mapping",
						"key": "t_address",
						"label": "mapping(address => uint256)",
						"numberOfBytes": "32",
						"value": "t_uint256"
					},
					"t_uint256": {
						"encoding": "inplace",
						"label": "uint256",
						"numberOfBytes": "32"
					}
				}
			},
			"userdoc": {
				"kind": "user",
				"methods": {},
				"version": 1
			}
		}
	}
}